:020000040800F2
:10000000A00400209D010008A5010008A701000828
:10001000A9010008AB010008AD01000800000000C4
:10002000000000000000000000000000AF01000818
:10003000B101000800000000B3010008F91B00082E
:10004000B7010008B7010008B7010008B7010008B0
:10005000B7010008B7010008B1110008B701000896
:10006000B7010008B7010008B7010008B701000890
:10007000B7010008B7010008B7010008B701000880
:10008000B7010008B7010008B7010008B701000870
:10009000B7010008B7010008B7010008B701000860
:1000A000B7010008B7010008B7010008B701000850
:1000B0002D1D0008B7010008B7010008B7010008AE
:1000C000B7010008B7010008B7010008B701000830
:1000D000B70100080D1F0008B7010008B7010008AC
:1000E000B7010008B7010008B7010008B701000810
:1000F000B7010008B7010008B7010008B701000800
:10010000B7010008B7010008B7010008B7010008EF
:10011000B7010008B7010008B7010008B7010008DF
:10012000B7010008B7010008B7010008B7010008CF
:10013000B7010008B7010008B7010008B7010008BF
:10014000B7010008B7010008B7010008B7010008AF
:10015000B7010008B7010008B7010008B70100089F
:10016000B7010008B7010008B7010008B70100088F
:10017000B7010008B7010008B7010008B70100087F
:10018000B7010008B7010008DFF80CD000F042FA10
:1001900000480047A9270008A0040020064880471F
:1001A00006480047FEE7FEE7FEE7FEE7FEE7FEE75C
:1001B000FEE7FEE7FEE7FEE7DD1C00088901000818
:1001C00070B5064602F008FA046805460A220021C6
:1001D000304600F088F92C6070BD2DE9FE4F804656
:1001E00081EA0300C00F0C46009021F0004123F08B
:1001F0000045B8EB0200A94105D240462146904691
:100200001C460B46024623F00040104304D14046F2
:10021000214603B0BDE8F08F270DC7F30A00C3F3F2
:100220000A510290401A0190402866DAC3F3130085
:1002300040F4801B0098924620B10023D2EB030AC1
:1002400063EB0B0B01985946C0F14002504600F099
:1002500019F906460D4650465946019A00F031F903
:1002600010EB08006141002487EA115284EAE77329
:100270001A433BD0009A3AB3019A012A4FEA075237
:1002800010DC001B61EB02014FF0004202EA075252
:10029000CDE90042001C41F5801132462B4600F0AA
:1002A00067F9B6E7001B61EB0201001C41F5801302
:1002B00000185B412018A2F5001747EB030140EA44
:1002C000D570B6196D4111E06D084FEA360645EA62
:1002D000C0754FEA0752001B61EB0201001C41F59B
:1002E000801149084FEA30000019514132462B462F
:1002F00003B0BDE8F04F00F02EB900980122400095
:100300000023D0EB020263EBE073009821464FEA32
:10031000E074B8EB000061EB0401E9E783F000430F
:100320005BE781F0004158E72DE9FE4F81EA0304C5
:1003300004F0004421F0004100944FF0000B23F042
:10034000004350EA010402D052EA030404D1002021
:10035000014603B0BDE8F08FC3F30A54C1F30A5558
:100360002C44A4F2F3340194A0FB0254C1F3130112
:1003700041F48011C3F3130343F4801301FB0244DF
:1003800000FB034E840A970A44EA815447EA8357E4
:10039000A4FB076802958D0A05FB07854FEA932C9D
:1003A00004FB0C542705029D4FEA065847EA16370E
:1003B000B5EB08056EEB070C870E920E47EA811726
:1003C00042EA8312A7FB0201B6EB0B0164EB0004C7
:1003D0002B0D43EA0C335E1844EB1C50DA465146B1
:1003E000E7FB0201C5F313044FEA0B3343EA14534E
:1003F0004FEA0432019C43EA0603A4F10C04029480
:10040000009CCDE900B400F0B3F8A2E70EB540F2CD
:10041000334102910021CDE900110A460B4600F05C
:10042000A7F803B000BDC1F30A5210B5C1F3130120
:1004300040F2FF3341F480119A4201DA002010BDEE
:1004400040F233439A42A2F2334203DC524200F0BC
:1004500028F810BD904010BD30B50B460146002075
:100460002022012409E021FA02F59D4205D303FA76
:1004700002F5491B04FA02F52844151EA2F10102F7
:10048000F1DC30BD202A04DB203A00FA02F1002022
:1004900070479140C2F1200320FA03F319439040C2
:1004A0007047202A04DB203A21FA02F0002170472D
:1004B00021FA02F3D040C2F12002914008431946CC
:1004C0007047202A06DBCB17203A41FA02F043EAB4
:1004D000E07306E041FA02F3D040C2F120029140FD
:1004E0000843194670472DE9F04791460F4680466C
:1004F0000446002614F8015B2DB100F09DF8006859
:10050000405DC007F6D12B2D02D02D2D18D0641ED2
:100510004A463946204600F093F827B13968A1428F
:1005200001D1C7F8008071054FF002040BD540429D
:10053000002803DD02F050F80460A007BDE8F08752
:1005400046F48066E4E70028F8DA02F045F8046033
:100550006FF00040F2E710B5002B08DA401C41F1C3
:10056000000192185B411A4301D120F0010010BD37
:100570002DE9F04D92469B4611B1B1FA81F202E0AD
:10058000B0FA80F220329046FFF77CFF04460F4617
:1005900040EA0A0041EA0B0153465A46084303D198
:1005A00020463946BDE8F08D114653EA010015D0CA
:1005B000C8F140025046FFF774FF05460E4650460C
:1005C00059464246FFF75EFF084301D0012000E094
:1005D0000020054346EAE0762C4337430A984FEA69
:1005E0004453A0EB08004FEAD4240A304FF0000235
:1005F00044EA47544FEAD72502D500200146D1E707
:10060000010510196941DDE9084500196941BDE896
:10061000F04DA0E7064C074D06E0E06840F001030E
:1006200094E8070098471034AC42F6D3FFF7B0FDCA
:100630007031000890310008004870476C310008A4
:100640002DE9F05F82460078002715468B460AF1B7
:100650000104B946302801D09DB113E014F8010B14
:100660000127782803D0582801D045B10AE00DB100
:10067000102D07D10027102514F8010B02E00825E2
:1006800000E00A250026B0460EE005FB080005FB49
:1006900006F1012701EB10461FFA80F8B6F5803FFE
:1006A00000D3B94614F8010B294600F018F80028C9
:1006B000EBDABBF1000F05D00FB1641E00E0544629
:1006C000CBF80040B9F1000F06D001F085FF022100
:1006D0000160C81EBDE8F09F48EA0640FAE73A28E4
:1006E00000D2303820F02002412A01D3A2F1370095
:1006F000884201D34FF0FF3070470000F0B5012170
:100700009BB0084601F026F9F320199003208DF8DC
:10071000680000248DF86B4019A93C4800F078FD72
:100720000121880501F016F901210D02284601F08A
:1007300055F9374F384600F043FB364802A9CDE95A
:1007400000403548062651C1A800CDE905404000CB
:1007500007908000CDE908050AA90001012531C1F3
:100760000D94694638460E9400F0FCFB0121384692
:1007700000F0C8FA15941694179415A8189400F070
:1007800077F80F94119412941394224C8DF84050E2
:100790004C3C8DF841508DF850600FA9204600F078
:1007A00045F9072301220021204600F0EFF9072335
:1007B00002220121204600F0E9F907230322042147
:1007C000204600F0E3F9072304220521204600F02B
:1007D000DDF9072305220621204600F0D7F907237B
:1007E00006221946204600F0D1F90121204600F0EA
:1007F000F3F80121204600F0C5F80121204600F061
:100800000DF8204600F060FA1BB0F0BD0000024079
:10081000106402404C2001409200002070B5044654
:100820000F480D4684420AD00E48844207D00E4835
:10083000844204D040F28B110C4801F08BFF55B17B
:10084000012D04D04FF4C671084801F083FFA06861
:1008500040F0010002E0A06820F00100A06070BD3F
:1008600000200140002101400022014058300008D2
:1008700010B501680446E1B101291AD0022918D047
:10088000052916D0062914D0072912D0092910D01D
:1008900011290ED012290CD015290AD0162908D0FA
:1008A000172906D0192904D04FF4A971324801F054
:1008B00051FF606868B1B0F5803F0AD0B0F5003FE5
:1008C00007D0B0F5403F04D040F253112A4801F060
:1008D00041FFA06868B1B0F5804F0AD0B0F5004F75
:1008E00007D0B0F5404F04D04FF4AA71224801F070
:1008F00031FFE16889B3B1F5807F2ED0B1F5007F7B
:100900002BD0B1F5407F28D0B1F5806F25D0B1F55F
:10091000A06F22D0B1F5C06F1FD0B1F5E06F1CD031
:10092000B1F5006F19D0B1F5106F16D0B1F5206F89
:1009300013D0B1F5306F10D0B1F5406F0DD0B1F5D7
:10094000506F0AD0B1F5606F07D0B1F5706F04D069
:1009500040F25511084801F0FDFE084A10680849A8
:100960000840D4E900131943D4E90234234319435E
:100970000143116010BD00005830000804230140FD
:10098000E030FCFF70B504460F480D4684420AD0A3
:100990000E48844207D00E48844204D040F21B41E6
:1009A0000C4801F0D7FE55B1012D04D040F21C4196
:1009B000084801F0CFFEA06840F4807002E0A06813
:1009C00020F48070A06070BD002001400021014033
:1009D000002201405830000870B504460F480D460B
:1009E00084420AD00E48844207D00E48844204D084
:1009F00040F233410C4801F0ADFE55B1012D04D059
:100A000040F23441084801F0A5FEA06840F40070AF
:100A100002E0A06820F40070A06070BD00200140DA
:100A20000021014000220140583000082DE9F0412A
:100A3000054650480C46854209D04F48854206D0AD
:100A40004E48854203D0E9214D4801F083FE4FF026
:100A50008076206877004FF0407848B1B04207D0E8
:100A6000B84205D0404503D0EA21454801F072FE66
:100A7000207928B1012803D0EB21414801F06AFE1A
:100A8000607928B1012803D0EC213D4801F062FED5
:100A9000A06860B1B0F1805F09D0B0F1005F06D00E
:100AA000B0F1405F03D0ED21354801F053FEE0681E
:100AB00068B3B0422BD0B84229D0404527D0B0F11E
:100AC000806F24D0B0F1A06F21D0B0F1C06F1ED0E4
:100AD000B0F1E06F1BD0B0F1006F18D0B0F1106F23
:100AE00015D0B0F1206F12D0B0F1306F0FD0B0F14F
:100AF000406F0CD0B0F1506F09D0B0F1606F06D0EC
:100B0000B0F1706F03D0EE211D4801F023FE206983
:100B100030B1B0F5006F03D0EF21194801F01AFE93
:100B2000207D401E0F2803D9F021154801F012FE48
:100B30006868144922790840216840EA022001438C
:100B40006960A868104963790840D4E9032111431A
:100B5000A26842EA430211430143A960E86A20F413
:100B60007001207D401EC0B241EA0050E862BDE83D
:100B7000F0810000002001400021014000220140DE
:100B800058300008FFFEFFFCFDF7FFC02DE9F041E3
:100B9000064649481D4617460C4686420AD0474835
:100BA000864207D04648864204D04FF43271454809
:100BB00001F0D0FD44B3012C26D0022C24D0032C0C
:100BC00022D0042C20D0052C1ED0062C1CD0072CA3
:100BD0001AD0082C18D0092C16D00A2C14D00B2CA3
:100BE00012D00C2C10D00D2C0ED00E2C0CD00F2CA3
:100BF0000AD0102C08D0112C06D0122C04D040F2B0
:100C0000C921304801F0A6FDA7F10108B8F10F0F86
:100C100004D940F2CA212B4801F09CFD95B1012D69
:100C200010D0022D0ED0032D0CD0042D0AD0052D8E
:100C300008D0062D06D0072D04D040F2CB21214844
:100C400001F088FD0720092C0AD9F168A4F10A02F5
:100C500002EB42029040814395402943F16007E056
:100C6000316904EB4402904081439540294331614E
:100C70001F20072F09D2716B08EB88029040814337
:100C8000944021437163BDE8F0810D2F09D2316B8F
:100C9000FF1F07EB8702904081439440214331635B
:100CA000F1E7F16A0D3F07EB8702904081439440E2
:100CB0002143F162E7E700000020014000210140EC
:100CC000002201405830000810B50446094884420B
:100CD0000AD00948844207D00848844204D040F230
:100CE0003F31074801F036FDA06840F08040A06029
:100CF00010BD000000200140002101400022014001
:100D00005830000870B504462A480D4684423FD04A
:100D10002848183084423BD026483030844237D0AF
:100D200024484830844233D02248603084422FD057
:100D30002048783084422BD01E489030844227D0FF
:100D40001C48A830844223D01B48844220D01A4833
:100D5000183084421CD018483030844218D01648CD
:100D60004830844214D014486030844210D0124875
:100D7000783084420CD010489030844208D00E481D
:100D8000A830844204D040F2D9110C4801F0E2FCB2
:100D900055B1012D04D04FF4ED71084801F0DAFC93
:100DA000206840F0010002E0206820F0010020608F
:100DB00070BD00001060024010640240A0300008C6
:100DC0002DE9F05F614E614F604DDFF88081DFF803
:100DD0007CA1DFF878B118363037044608F14808AE
:100DE0000AF1600A0BF1780BA84234D0B44232D039
:100DF000BC4230D044452ED054452CD05C452AD03E
:100E000052489030844226D05048A830844222D0A4
:100E10004F4884421FD04E48183084421BD04C4863
:100E20003030844217D04A484830844213D0484872
:100E3000603084420FD04648783084420BD044481A
:100E40009030844207D04248A830844203D0BF216A
:100E5000404801F07FFC206820F001002060002065
:100E600020606060A060E060206121206061374800
:100E70004FF03D091038AC4201D1494603E04FF430
:100E80007461B44202D18160BDE8F09F4FF4741CDC
:100E9000BC4202D1C0F808C0F6E74FF07467444581
:100EA00001D18760F0E72C4A544501D1C260EBE7DD
:100EB0002A4B5C4501D1C360E6E7244E284D9036AD
:100EC000B44201D1C560DFE7DFF880804FF03D56C6
:100ED00008F1A808444501D1C660D5E71C48DFF8F1
:100EE00070800838444501D1494605E0DFF860804C
:100EF00008F11808444501D10160C5E714493031B3
:100F00008C4202D1C0F800C0BEE7114948318C4282
:100F100001D10760B8E70E490D486031001F8C42CF
:100F200001D10260B0E70A4978318C4201D10360F7
:100F3000AAE7074990318C4201D10560A4E7044932
:100F4000A8318C42A0D106609EE7000010600240EC
:100F500010640240A03000083D000020400F002037
:100F600000003D2070B505468D480C4685423FD0B7
:100F70008B48183085423BD089483030854237D085
:100F800087484830854233D08548603085422FD02D
:100F90008348783085422BD081489030854227D0D5
:100FA0007F48A830854223D07E48854220D07D48A6
:100FB000183085421CD07B483030854218D07948A3
:100FC0004830854214D077486030854210D075484B
:100FD000783085420CD073489030854208D07148F3
:100FE000A830854204D04FF49E716F4801F0B2FBE7
:100FF0002068C8B1B0F1007F16D0B0F1806F13D077
:10100000B0F1C06F10D0B0F1006F0DD0B0F1206F13
:101010000AD0B0F1406F07D0B0F1606F04D040F259
:101020003D11614801F096FBE06840B1402806D0D0
:10103000802804D04FF49F715B4801F08BFB20693E
:101040004FF6FF71401E884204D340F23F115648CC
:1010500001F080FB6069B0F5007F05D020B14FF44E
:10106000A071514801F076FBA069B0F5806F05D002
:1010700020B140F241114C4801F06CFBE06950B1E5
:10108000B0F5006F07D0B0F5805F04D04FF4A171C8
:10109000454801F05FFB206A50B1B0F5005F07D012
:1010A000B0F5804F04D040F243113F4801F052FBAD
:1010B000606A38B1B0F5807F04D04FF4A2713A482D
:1010C00001F048FBA06A68B1B0F5803F0AD0B0F5E6
:1010D000003F07D0B0F5403F04D040F24511324800
:1010E00001F038FBE06A30B1042804D04FF4A3715A
:1010F0002D4801F02FFB206B50B1012808D00228A9
:1011000006D0032804D040F24711274801F022FB03
:10111000606B68B1B0F5000F0AD0B0F1807F07D0E6
:10112000B0F1C07F04D04FF4A4711F4801F012FB4E
:10113000A06B68B1B0F5001F0AD0B0F5800F07D0E2
:10114000B0F5C00F04D040F24911174801F002FB7E
:1011500029681648E268014020681043D4E9052355
:101160001A431043E2691043226A1043626A104333
:10117000A26A1043626B1043A26B104308432860BD
:10118000686920F00701D4E90B0210430843686145
:10119000206968606068A860A068E86070BD0000B1
:1011A0001060024010640240A03000083F801CF034
:1011B000012000F001B8000010B50446C00D00D1B8
:1011C00024B940F21D11034801F0C4FA024804603A
:1011D00010BD0000802F0008143C01401CB5012107
:1011E000042000F0B7FB4FF47C40009000208DF805
:1011F00004008DF8060001208DF8070002208DF80C
:1012000005006946014800F003F81CBD00100240CB
:101210002DE9F05F0446484800270D4684421BD064
:101220004648844218D04648844215D045488442F6
:1012300012D0454884420FD0444884420CD04448E0
:10124000844209D04348844206D04348844203D0B4
:10125000BB21424801F07EFA286818B9BC213F48FA
:1012600001F078FA287948B1012807D0022805D082
:10127000032803D0BD21394801F06CFAE87938B170
:10128000012805D0022803D0BE21344801F062FABB
:101290004FF0010A4FF0030B28680AFA07F63040B6
:1012A000B04243D1226879000BFA01F822EA080221
:1012B000894622602879216800FA09F008432060F5
:1012C0002879012801D0022826D1687948B101285F
:1012D00007D0022805D0032803D0D0211F4801F0F1
:1012E00039FAA06820EA0800A0606879A16800FACD
:1012F00009F00843A060A87928B1012803D0D721BC
:10130000164801F027FA6068B04360606068A97908
:10131000B94089B208436060E06820EA0800E060F4
:10132000E879E16800FA09F00843E0607F1C102FBB
:10133000B2D3BDE8F09F000000000240000402406C
:1013400000080240000C024000100240001402405D
:1013500000180240001C024000200240382F000804
:1013600070B506463B4814460D4686421CD03A48A6
:10137000864219D03948864216D03948864213D061
:101380003848864210D0384886420DD037488642C9
:101390000AD03748864207D03648864204D040F209
:1013A0001721354801F0D6F915B3012D20D0022DB3
:1013B0001ED0032D1CD0042D1AD0052D18D0062DBB
:1013C00016D0072D14D0082D12D0092D10D00A2DBB
:1013D0000ED00B2D0CD00C2D0AD00D2D08D00E2DBB
:1013E00006D00F2D04D04FF40671234801F0B2F956
:1013F00004B3092C1ED0012C1CD0022C1AD0032CB3
:1014000018D0042C16D0052C14D0062C12D0072C82
:1014100010D0082C0ED00A2C0CD00B2C0AD00C2C7F
:1014200008D00D2C06D00F2C04D040F21921124800
:1014300001F090F96807C10E8C40E80806EB8000C7
:10144000026A0F238B409A430262016A21430162C0
:1014500070BD00000000024000040240000802408D
:10146000000C02400010024000140240001802402C
:10147000001C024000200240382F00081CB501214A
:10148000102000F067FA0C20009001208DF8040075
:1014900000218DF806108DF8070002208DF8050058
:1014A00069460248FFF7B4FE1CBD00000010024070
:1014B00070B505462A4800260C4685421CD02948AE
:1014C000854219D02848854216D02848854213D035
:1014D0002748854210D0274885420DD026488542AE
:1014E0000AD02648854207D02548854204D04FF4CB
:1014F0009871244801F02EF9012C2AD0022C28D012
:10150000042C26D0082C24D0102C22D0202C20D023
:10151000402C1ED0802C1CD0B4F5807F19D0B4F59F
:10152000007F16D0B4F5806F13D0B4F5006F10D0E3
:10153000B4F5805F0DD0B4F5005F0AD0B4F5804FEC
:1015400007D0B4F5004F04D040F231110D4801F03E
:1015500001F92869204200D00126304670BD000004
:10156000000002400004024000080240000C02405B
:10157000001002400014024000180240001C02400B
:1015800000200240382F000870B5044614480D466C
:1015900084421CD01348844219D01348844216D088
:1015A0001248844213D01248844210D01148844219
:1015B0000DD0114884420AD01048844207D0104808
:1015C000844204D04FF4C9710E4801F0C3F825B924
:1015D00040F293110B4801F0BDF8658370BD000027
:1015E000000002400004024000080240000C0240DB
:1015F000001002400014024000180240001C02408B
:1016000000200240382F000870B5044614480D46EB
:1016100084421CD01348844219D01348844216D007
:101620001248844213D01248844210D01148844298
:101630000DD0114884420AD01048844207D0104887
:10164000844204D040F27F110E4801F083F825B99E
:101650004FF4C0710B4801F07DF8258370BD000088
:10166000000002400004024000080240000C02405A
:10167000001002400014024000180240001C02400A
:1016800000200240382F000810B500F01FFCFFF7C3
:1016900035F8FFF7A3FD012000F00AFA002000F062
:1016A00007FA022000F004FA032000F001FA0B48C8
:1016B0004FF47A710068B0FBF1F0B0F1807F0CD28A
:1016C00020F07F414FF0E020491E4161044AF021A3
:1016D0001170002181610721016110BD1C000020F3
:1016E00023ED00E070B5054688B00121102000F020
:1016F00075F90121022000F02DF9C020049002208C
:101700008DF814008DF815000024204E8DF8164039
:101710008DF8174004A93046FFF77AFD072206210D
:101720003046FFF71DFE072211463046FFF718FE30
:101730000095ADF808400C20154DADF80440ADF80B
:101740000A00ADF80640ADF80C406946284600F0A6
:10175000EFFD0121284600F059FC2021284600F029
:101760000DFC012240F22551284600F065FD2520A0
:101770008DF8180001208DF819008DF81A408DF8A9
:101780001B0006A800F07EF808B070BD00040240FF
:1017900000100140F0B50646012187B0480400F072
:1017A000FBF80121084600F0D5F802208DF814005E
:1017B00000248DF816408DF81740164F0C258DF833
:1017C0001500049504A93846FFF722FD07220221DF
:1017D0003846FFF7C5FD072203213846FFF7C0FD55
:1017E000B814ADF80400ADF80640ADF80840ADF807
:1017F0000C40094C0096ADF80A506946204600F0AE
:1018000097FD0121204600F001FCFFF737FE07B0ED
:10181000F0BD0000000002400044004010B5054C3F
:1018200004212046FFF7B0FE2046BDE81040082105
:10183000FFF7AABE0010024010B5054C0421204657
:10184000FFF7E2FE2046BDE810400821FFF7DCBEAE
:10185000001002401CB504468DF800108DF80120E0
:10186000100A8DF80200100C8DF80300100E8DF890
:101870000400002001F01AFB6A460521204601F011
:10188000DFFA1CBD70B50446C0780F2528B10128C9
:1018900003D087211EA000F05DFF6078102803D3DD
:1018A00088211BA000F056FFA078102803D38921BF
:1018B00017A000F04FFFE17801204FF0E023E9B1DD
:1018C0002249096801F4E061C1F5E061C1F3072133
:1018D000C1F10402CD4061789140A2782A400A43C8
:1018E000110122781A4D5155217801F01F029040C4
:1018F000490903EB8101C1F8000170BD217801F0B5
:101900001F029040490903EB8101C1F8800170BDBD
:101910002E2E5C2E2E5C2E2E5C2E2E5C4C6962725E
:1019200061726965735C53544D3332463478785F25
:101930005374645065726970685F44726976657249
:101940005C7372635C6D6973632E63000CED00E081
:1019500000E400E070B504460C480E46044200D195
:1019600024B94FF488610A4800F0F4FE094D4EB1E5
:10197000012E04D040F24241054800F0EBFE2868F9
:10198000204301E02868A043286070BD00EE8B81F1
:10199000F02E00083038024070B504460C480E4660
:1019A000044200D124B940F2AD410A4800F0D2FE11
:1019B000094D4EB1012E04D040F2AE41054800F071
:1019C000C9FE2868204301E02868A043286070BD54
:1019D000003601C9F02E00084038024070B50446B8
:1019E0000C480E46044200D124B940F2D5410A48C1
:1019F00000F0B0FE094D4EB1012E04D040F2D641A8
:101A0000054800F0A7FE2868204301E02868A043AD
:101A1000286070BDCCA0F8FFF02E000844380240CA
:101A200070B5204A1168204C11F00C0104D06610EA
:101A3000042903D0082903D004601BE0066019E0E4
:101A40001849091F0B68C3F380550B6803F03F0367
:101A500015B1B6FBF3F301E0B4FBF3F30C680968CE
:101A6000C4F388146343C1F30141491C4900B3FB2B
:101A7000F1F1016011680F2303EA11110B4B5C5C5B
:101A80000168E14041601468072505EA94241C5D63
:101A900021FA04F48460126805EA52329A5CD1405B
:101AA000C16070BD083802400024F40050000020DE
:101AB0001CB504460E48012150F82400FFF74AFFE8
:101AC0000B480021083830F81400009001208DF8F0
:101AD00004008DF806108DF8070002208DF805002F
:101AE0000448694650F82400FFF792FB1CBD000033
:101AF000E02E0008400000200349044A31F810108D
:101B000052F8200041837047D82E00084000002082
:101B10000349044A31F8101052F82000018370473D
:101B2000D82E000840000020044951F820104A69CE
:101B3000034B33F8100042404A61704740000020D8
:101B4000D82E00080CB500202749019000900A68A3
:101B500042F480320A604FF4A0630A6802F4003253
:101B60000092019A521C0192009A12B9019A9A426B
:101B7000F3D10A68920334D5012000901A4840300E
:101B8000026842F0805202601848026842F48042C3
:101B900002601548083002680260026842F40042A0
:101BA0000260026842F4A0520260031F104A1A60E9
:101BB0000A6842F080720A600A689201FCD50D4AF8
:101BC00040F205611160016821F0030101600168C4
:101BD00041F0020101600168C1F381010229FAD1DB
:101BE0000CBD00900CBD00000038024000700040A9
:101BF00008544007003C02402DE9F05F304D6888F2
:101C0000401C80B268800A2858D100246C800120D2
:101C1000FFF78AFF2B48007800284FD02A4F2B4E21
:101C20002C704FF47A7905F108082C7836F81400F6
:101C3000484503D240F6FF7026F8140038F8141017
:101C4000404636F81420891A27F8141037F9141072
:101C5000192904DC37F9141011F1190F28DA012CB5
:101C600026D036F8141020F8141036F81400FEF7B9
:101C7000CDFB174A174BFEF757FB824612488B469F
:101C80000C3830F81400FEF7C1FB52465B46FEF7F5
:101C900045FBFEF7C8FB0C490C3121F8140031F864
:101CA00014200D480B344243E0B20121FFF7D2FD6E
:101CB0002878401CC0B228700628B6D3BDE8F09F33
:101CC0000800002001000020700000209200002089
:101CD00044696FF085C9943F18FCFFFF0F4810B5A9
:101CE000016841F0010101600C4A002108321160D5
:101CF00002680B4B1A400260031D0A4A1A60026810
:101D000022F48022026005480C300160FFF71AFFC0
:101D100005494FF00060086010BD00000038024027
:101D2000FFFFF6FE1030002408ED00E010B50121A1
:101D30008C07204600F05CF8002805D02046BDE85E
:101D40001040012100F002B810BD000070B504463B
:101D500019480D4684422BD0B4F1804F28D0174843
:101D6000844225D01648844222D0164884421FD08F
:101D7000154884421CD01548844219D01448844226
:101D800016D01448844213D01348844210D013480C
:101D900084420DD0124884420AD01248844207D0AF
:101DA0001148844204D040F6F311104800F0D2FCF0
:101DB000E843208270BD00000000014000040040A4
:101DC00000080040000C00400010004000140040DB
:101DD000000401400040014000440140004801402F
:101DE00000180040001C004000200040C82F0008E0
:101DF00070B50446274800260D4684422BD0B4F126
:101E0000804F28D02448844225D02448844222D0C0
:101E1000234884421FD0234884421CD02248844255
:101E200019D02248844216D02148844213D0214838
:101E3000844210D0204884420DD0204884420AD0E9
:101E40001F48844207D01F48844204D040F6CC117A
:101E50001D4800F07FFC012D12D0022D10D0042D62
:101E60000ED0082D0CD0102D0AD0202D08D0402DDA
:101E700006D0802D04D040F6CD11134800F06AFC46
:101E8000208AA189284201EA050101D001B1012679
:101E9000304670BD000001400004004000080040D2
:101EA000000C0040001000400014004000040140FD
:101EB000004001400044014000480140001800403B
:101EC000001C004000200040C82F000810B54FF44F
:101ED000E130FFF707FC07A1084800F05BFB4FF477
:101EE0009640FFF757FCBDE8104005A1064800F0FA
:101EF00051BB0000555341525420310000100140A5
:101F000055534152542032000044004070B5164CE5
:101F100040F22551204600F00DF9012823D120463A
:101F200000F0D8FAC3B200201049652B0BD04A68E4
:101F30001AB90F4D6862A862A8850D4824308354F1
:101F4000521C4A6009E0486009482430FEF738F91D
:101F5000084908600849012008702046BDE8704023
:101F6000202100F00BB870BD0010014008000020D7
:101F70006400002004000020000000202DE9F0474C
:101F80001B4E1C4FDFF87080DFF870900D46044642
:101F9000B04210D0BC420ED044450CD01848844208
:101FA00009D01848844206D04C4504D040F22C5148
:101FB000154800F0CFFB35F4587000D125B940F238
:101FC0002D51114800F0C6FBA8050CD5B4420AD02B
:101FD000BC4208D0444506D04C4504D040F23251B2
:101FE000094800F0B7FBE8432080BDE8F087000017
:101FF000001001400044004000480040001401402F
:10200000004C0040005000401030000870B50446FD
:1020100014480D46844213D01348844210D013480C
:1020200084420DD0124884420AD01248844207D01C
:102030001148844204D040F29B11104800F08AFB02
:1020400055B1012D04D04FF4CE710C4800F082FB45
:10205000A08940F4005002E0A08920F40050A08143
:1020600070BD0000001001400044004000480040E6
:10207000004C0040005000400014014010300008A7
:102080002DE9F047244F0026DFF89080DFF890908C
:10209000DFF890A00C460546B84210D045450ED05A
:1020A0004D450CD02048854209D02048854206D0B5
:1020B000554504D040F2FC411D4800F04BFB012C7B
:1020C00023D0802C21D0402C1FD0202C1DD0102CB0
:1020D0001BD0B4F5807F18D0B4F5007F08D0082C51
:1020E00013D0042C11D0022C0FD040F2FD4109E096
:1020F000BD420AD0454508D04D4506D0554504D0CF
:1021000040F202510A4800F025FB2888204200D006
:1021100001263046BDE8F087001001400044004031
:102120000048004000140140004C004000500040B6
:10213000103000082DE9F047384F0026DFF8E08026
:10214000DFF8E090DFF8E0A00C460546B84210D07A
:1021500045450ED04D450CD03448854209D0344811
:10216000854206D0554504D04FF4AA61314800F0AD
:10217000F1FA40F66A10282C32D0A4F5E061273934
:102180002ED0A4F5C06126392AD0A4F5A061253946
:1021900026D0A4F58061243922D0A4F50061463907
:1021A0001ED084420FD0B4F5587F19D0A4F54070EA
:1021B000253815D0B4F5187F12D0B4F5B07F0FD004
:1021C00040F2515109E0BD420AD0454508D04D4585
:1021D00006D0554504D040F25651164800F0BAFAE0
:1021E00004F01F030122C4F3421002FA03F1012894
:1021F00010D0022810D0A88A08424FEA142102FA0F
:1022000001F2298801EA020101D001B1012630461C
:10221000BDE8F087A889EFE7288AEDE700100140C4
:10222000004400400048004000140140004C0040C1
:1022300000500040103000082DE9F05F354FDFF806
:10224000D880DFF8D8A0DFF8D8B016460D4604468F
:10225000B84210D044450ED054450CD03148844289
:1022600009D03148844206D05C4504D040F2BD41DB
:102270002E4800F06FFA40F66A19282D1CD0A5F5FB
:10228000E060273818D0A5F5C060263814D0A5F531
:10229000A060253810D0A5F5806024380CD0A5F5B5
:1022A0000060463808D04D4506D0602D04D040F27D
:1022B000BE411E4800F04EFA36B1012E04D040F265
:1022C000BF411A4800F046FA4D450CD1BC420AD035
:1022D000444508D0544506D05C4504D040F2C44182
:1022E000124800F037FA05F01F020121C5F3421031
:1022F0009140012806D0022806D0143420682EB15F
:10230000084304E00C34F9E71034F7E78843206011
:10231000BDE8F09F0010014000440040004800402C
:1023200000140140004C00400050004010300008F4
:102330002DE9FF475F4EDFF88081DFF88091604F25
:102340000D460446B0420FD044450DD04C450BD04D
:102350005C48844208D05C48844205D0BC4203D02B
:10236000EB215A4800F0F6F928685949401E884286
:1023700003D3EC21554800F0EDF9A8884FF4805ABA
:1023800028B1504503D0ED21504800F0E3F9E8882A
:1023900058B1504509D0B0F5005F06D0B0F5405FA8
:1023A00003D0EE21494800F0D5F9288948B1B0F5AD
:1023B000806F06D0B0F5C06F03D0EF21434800F026
:1023C000C9F9688930F00C0100D118B9F0213F48F3
:1023D00000F0C0F9A889D0B1B0F5807F0BD0B0F57E
:1023E000007F08D0B0F5407F05D0F121374800F0DC
:1023F000B1F9A88958B1B44209D0444507D04C4539
:1024000005D0BC4203D0F621304800F0A3F9208A61
:1024100020F44051E88808432082A18941F20C60F1
:102420008143A8882A8910436A890A431043A081FE
:10243000A08A20F44071A8890843A0826846FFF76B
:10244000EFFAB44201D0BC4201D1039800E00298F7
:10245000A1890904002900EBC00101EB00102968E3
:1024600002DA4FEA410101E04FEA8101B0FBF1F0ED
:102470006422B0FBF2F14FEA01114FEA11136FF041
:1024800018056B4300EB8300A3891D044FF0320352
:1024900006D503EBC000B0FBF2F000F0070005E04A
:1024A00003EB0010B0FBF2F000F00F0008432081B6
:1024B000BDE8FF8700100140004400400048004094
:1024C00000140140004C0040005000401030000853
:1024D000E070720010B504460D48844213D00D48D8
:1024E000844210D00C4884420DD00C4884420AD05B
:1024F0000B48844207D00B48844204D040F22D217F
:10250000094800F027F9A088C0F3080010BD0000BA
:10251000001001400044004000480040004C0040D2
:1025200000500040001401401030000870B504460F
:1025300011480D46844213D01048844210D01048F0
:1025400084420DD00F4884420AD00F48844207D0FD
:102550000E48844204D040F21D210D4800F0FAF8E4
:10256000B5F5007F04D340F21E21094800F0F2F8CF
:10257000C5F30800A08070BD001001400044004079
:1025800000480040004C0040005000400014014052
:102590001030000870B50C46054608E02888400653
:1025A000FCD521782846FFF7C1FF14F8010B2078ED
:1025B0000028F3D170BD00000FB4054B10B503A97E
:1025C000044A029800F01CF810BC5DF814FB0000EF
:1025D000592700083800002000487047600000209C
:1025E00002E008C8121F08C1002AFAD170477047DC
:1025F000002001E001C1121F002AFBD1704700003A
:102600002DE9FF4F89B09B460446002597E0252819
:1026100033D10027641C4E49B84601222378203B61
:1026200002FA03F0084202D00743641CF6E7207860
:102630002E2819D114F8010F47F004072A280ED0CC
:102640006FF02F022078A0F1300109290CD808EB97
:10265000880102EB410100EB0108641CF2E70A98D3
:10266000641C50F8048B0A90207800286BD06428F2
:1026700008D0692806D0752820D05A460B99904773
:102680006D1C5BE00A994FF00A0901C90A91002804
:1026900004DAC0F100004FF02D0102E0390504D545
:1026A0002B218DF82010012103E0F90704D020210F
:1026B000F7E78A4608AE0EE00021FAE70A994FF0E4
:1026C0000A0901C90A91F7E74946FDF7C5FE01F17C
:1026D000300106F8011D0028F6D1ADEB060000F12F
:1026E0002009780701D44FF00108C84502DDA8EBA6
:1026F000090000E000208046002706E008A85A46AE
:10270000C05D0B9990476D1C7F1C5745F6DB04E0BC
:1027100030205A460B9990476D1CB8F10001A8F182
:102720000108F5DC05E016F8010B5A460B999047B5
:102730006D1CB9F10001A9F10109F4DC641C2078D9
:1027400000287FF464AF0DB02846BDE8F08F00008C
:1027500009280100FEE7000070B5114C114E054636
:102760000A2810D120680D280DD00D20206080216E
:102770003046FFF785FC0028F9D0208881B230462A
:10278000FFF7D4FE00E0256080213046FFF778FC9B
:102790000028F9D0A9B23046FFF7C8FE284670BD20
:1027A00030000020001001408CB0FEF76DFF7B214F
:1027B000F4A047E0F84C20780128FBD100232370D7
:1027C000626842F2107592FBF5F64FF47A7092FB54
:1027D000F0F005FB1622F1B2C0B26260012934D0DC
:1027E000022974D0002973D0032972D0042971D032
:1027F000052970D00629DDD1524202210120FFF7C0
:1028000029F86068022142420846FFF723F8606811
:10281000022142420320FFF71DF860680221424274
:102820000420FFF717F86068022142420520FFF7F5
:1028300011F86068022142420620FFF70BF8606839
:102840004142D6A0FFF7B8FEB4E7012161706421D0
:1028500092FBF1F301FB13220B3862600628A9D228
:10286000DFE800F0030F1B273A46D048012142431E
:102870000B20FEF7EFFF6168CD4A01F15300108095
:102880007AE0CA48012142430C20FEF7E3FF616869
:10289000C74801F15302428078E0C4480121424315
:1028A0000D20FEF7D7FF6068C14A01465330908083
:1028B00076E0BE48521C424301210E20FEF7CAFFBB
:1028C0006168BB4A01F15400D080491C72E01BE0F2
:1028D00039E085E0B6E042E2B448012142430F20EE
:1028E000FEF7B8FF6168B24801F1530202816BE064
:1028F000AE48012142431020FEF7ACFF6068AC4AAD
:1029000001465330508169E002210120FEF7A2FF09
:10291000022108466268FEF79DFF022103206268DB
:10292000FEF798FF022104206268FEF793FF022160
:1029300005206268FEF78EFF022106206268FEF71E
:1029400089FF61687DE7642192FBF1F501FB1522A7
:10295000626063700728BFF477AFDFE800F004051A
:102960000F19232D370025E74FF47A7042430121D8
:102970000B20FEF76FFF61688EA063E74FF47A705B
:10298000424301210C20FEF765FF61688DA059E7E5
:102990004FF47A70424301210D20FEF75BFF61681E
:1029A0008CA04FE74FF47A70424301210E20FEF7CE
:1029B00051FF61688BA045E74FF47A7042430121D3
:1029C0000F20FEF747FF61688AA03BE74FF47A705B
:1029D000424301211020FEF73DFF616889A031E7E5
:1029E0001F380628BFD2DFE800F0030A11181F269F
:1029F000002204210B20FEF72DFF86A0ACE100226F
:102A000004210C20FEF726FF86A0A5E10022042168
:102A10000D20FEF71FFF87A09EE1002204210E205B
:102A2000FEF718FF87A097E1002204210F20FEF790
:102A300011FF88A090E1002204211020FEF70AFF78
:102A400088A089E1637000208A4C82460190029040
:102A5000039083460490224601210B20FEF7FAFEE4
:102A6000224601210C20FEF7F5FE224601210D2011
:102A7000FEF7F0FE224601210E20FEF7EBFE224675
:102A800001210F20FEF7E6FE224601211020FEF76D
:102A9000E1FE79A0FFF790FDDFF8E8914FF4806147
:102AA0004846FEF705FD80464FF400614846FEF7B4
:102AB000FFFC07464FF480514846FEF7F9FC0646F6
:102AC0004FF400514846FEF7F3FC05464FF48041B1
:102AD0004846FEF7EDFC04464FF400414846FEF739
:102AE000E7FC8146B8F1000F15D0BBF1000F12D101
:102AF000002204210B20FEF7ADFE63A0FFF75CFD72
:102B00000020FFF705F80220FEF7F6FF0320FEF78E
:102B1000F3FF4FF0010BA7B1049890B900220421F4
:102B20000C20FEF797FE5DA0FFF746FD0020FEF7A4
:102B3000E3FF0220FEF7ECFF0320FEF7DDFF01209C
:102B40000490A6B1039890B9002204210D20FEF74D
:102B500081FE57A0FFF730FD0020FEF7D9FF0220CD
:102B6000FEF7D6FF0320FEF7C7FF012003903DB11B
:102B7000029828B9002204210E20FEF76BFEA1E086
:102B8000AEE000004E677579656E207468696E6806
:102B9000202564200A0000000000002056616E20FD
:102BA000746F633A202564200A00000018FCFFFFC0
:102BB000640000205669207472692031313A202562
:102BC00064200A005669207472692031323A202547
:102BD00064200A005669207472692031333A202536
:102BE00064200A005669207472692031343A202525
:102BF00064200A005669207472692031353A202514
:102C000064200A005669207472692031363A202502
:102C100064200A005669207472692031312052659F
:102C200073657400566920747269203132205265D0
:102C300073657400566920747269203133205265BF
:102C400073657400566920747269203134205265AE
:102C5000736574005669207472692031352052659D
:102C6000736574005669207472692031362052658C
:102C700073657400A086010044616E67207665204C
:102C80000A00000000080240566920747269203171
:102C900031205265736574200A0000005669207463
:102CA0007269203132205265736574200A00000079
:102CB000566920747269203133205265736574201F
:102CC0000A00000045A0FFF777FC0020FEF714FF84
:102CD0000220FEF711FF0320FEF71AFF01200290E9
:102CE000A4B1019890B9002204210F20FEF7B2FD93
:102CF0003FA0FFF761FC0020FEF70AFF0220FEF76D
:102D0000FBFE0320FEF704FF01200190B9F1000F44
:102D10003FF4C2AEBAF1000F12D1002204211020FC
:102D2000FEF798FD37A0FFF747FC0020FEF7E4FE12
:102D30000220FEF7E1FE0320FEF7EAFE4FF0010A53
:102D4000002CE5D0002DE3D0002EE1D0002FDFD005
:102D5000B8F1000FDCD030A0FFF72EFC2AE50120EF
:102D60006070642092FBF0F100FB11222D4862603C
:102D7000424301210B20FEF76DFD2A4862680121C4
:102D800042430C20FEF766FD26486268012142435B
:102D90000D20FEF75FFD23486268012142430E20AB
:102DA000FEF758FD1F486268012142430F20FEF7DD
:102DB00051FD1C486268012142431020FEF74AFD84
:102DC0006068014600F15302174802804280828009
:102DD000C2800281428115A034E50000566920744A
:102DE0007269203134205265736574200A00000036
:102DF00056692074726920313520526573657420DC
:102E00000A0000005669207472692031362052652C
:102E1000736574200A000000484F4D452121212090
:102E20000A00000018FCFFFF6400002056692074AF
:102E30007269205669736D653A202564200A000086
:102E40002DE9F04790460E4681460027FEF7F4FC38
:102E5000202E03D94FF0FF30BDE8F08746F4807094
:102E600000F024F8092000F021F8484600F01EF890
:102E700089EA0600002480F0090506E018F804003D
:102E8000454000F013F8641CE4B2B442F6D328467F
:102E900000F00CF8002000F009F8FEF7BFFC7F1CE2
:102EA000FFB2052FD2D30120D6E7000010B5064CA3
:102EB00001462046FFF73AFB40212046FFF7E0F8A5
:102EC0000028F9D010BD00000044004000000600BA
:102ED00001000100010000000010002000400080FF
:102EE00008000000080000000800000008000000C2
:102EF0002E2E5C2E2E5C2E2E5C2E2E5C4C69627269
:102F000061726965735C53544D3332463478785F2F
:102F10005374645065726970685F44726976657253
:102F20005C7372635C73746D3332663478785F728D
:102F300063632E63000000002E2E5C2E2E5C2E2E6E
:102F40005C2E2E5C4C69627261726965735C5354CD
:102F50004D3332463478785F5374645065726970CB
:102F6000685F4472697665725C7372635C73746DDA
:102F70003332663478785F6770696F2E63000000C3
:102F80002E2E5C2E2E5C2E2E5C2E2E5C4C696272D8
:102F900061726965735C53544D3332463478785F9F
:102FA0005374645065726970685F447269766572C3
:102FB0005C7372635C73746D3332663478785F650A
:102FC0007874692E630000002E2E5C2E2E5C2E2E4F
:102FD0005C2E2E5C4C69627261726965735C53543D
:102FE0004D3332463478785F53746450657269703B
:102FF000685F4472697665725C7372635C73746D4A
:103000003332663478785F74696D2E630000000097
:103010002E2E5C2E2E5C2E2E5C2E2E5C4C69627247
:1030200061726965735C53544D3332463478785F0E
:103030005374645065726970685F44726976657232
:103040005C7372635C73746D3332663478785F7569
:10305000736172742E6300002E2E5C2E2E5C2E2E59
:103060005C2E2E5C4C69627261726965735C5354AC
:103070004D3332463478785F5374645065726970AA
:10308000685F4472697665725C7372635C73746DB9
:103090003332663478785F6164632E630000000029
:1030A0002E2E5C2E2E5C2E2E5C2E2E5C4C696272B7
:1030B00061726965735C53544D3332463478785F7E
:1030C0005374645065726970685F447269766572A2
:1030D0005C7372635C73746D3332663478785F64EA
:1030E0006D612E63000000000040404040404040C1
:1030F00040404141414141404040404040404040CB
:10310000404040404040404040050202020202026E
:1031100002020202020202020220202020202020BD
:1031200020202002020202020202909090909090D1
:10313000101010101010101010101010101010108F
:103140001010101002020202020288888888888803
:1031500008080808080808080808080808080808EF
:10316000080808080202020240000000E9300008D6
:10317000903100080000002064000000E0250008F5
:10318000F4310008640000203C040000F025000831
:1031900000000000E8030000000000000000000044
:1031A000FF0FFF0FFF0F340D480D8E0D007A030A3D
:1031B00000000000000000000102030406070809E7
:1031C00000000000000000000000000000000240BD
:1031D000000C0240000C0240000C0240000C0240B7
:1031E00000000000010203040102030406070809AD
:0431F00000000000DB
:040000050800018965
:00000001FF
