:020000040800F2
:10000000A80400209D010008A5010008A701000820
:10001000A9010008AB010008AD01000800000000C4
:10002000000000000000000000000000AF01000818
:10003000B101000800000000B3010008351D0008F0
:10004000B7010008B7010008B7010008B7010008B0
:10005000B7010008B7010008B9110008B70100088E
:10006000B7010008B7010008B7010008B701000890
:10007000B7010008B7010008B7010008B701000880
:10008000B7010008B7010008B7010008B701000870
:10009000B7010008B7010008B7010008B701000860
:1000A000B7010008B7010008B7010008B701000850
:1000B000891D0008B7010008B7010008B701000852
:1000C000B7010008B7010008B7010008B701000830
:1000D000B7010008F5220008B7010008B7010008C1
:1000E000B7010008B7010008B7010008B701000810
:1000F000B7010008B7010008B7010008B701000800
:10010000B7010008B7010008B7010008B7010008EF
:10011000B7010008B7010008B7010008B7010008DF
:10012000B7010008B7010008B7010008B7010008CF
:10013000B7010008B7010008B7010008B7010008BF
:10014000B7010008B7010008B7010008B7010008AF
:10015000B7010008B7010008B7010008B70100089F
:10016000B7010008B7010008B7010008B70100088F
:10017000B7010008B7010008B7010008B70100087F
:10018000B7010008B7010008DFF80CD000F042FA10
:1001900000480047652B0008A80400200648804757
:1001A00006480047FEE7FEE7FEE7FEE7FEE7FEE75C
:1001B000FEE7FEE7FEE7FEE7391D000889010008BB
:1001C00070B5064602F0E6FB046805460A220021E7
:1001D000304600F088F92C6070BD2DE9FE4F804656
:1001E00081EA0300C00F0C46009021F0004123F08B
:1001F0000045B8EB0200A94105D240462146904691
:100200001C460B46024623F00040104304D14046F2
:10021000214603B0BDE8F08F270DC7F30A00C3F3F2
:100220000A510290401A0190402866DAC3F3130085
:1002300040F4801B0098924620B10023D2EB030AC1
:1002400063EB0B0B01985946C0F14002504600F099
:1002500019F906460D4650465946019A00F031F903
:1002600010EB08006141002487EA115284EAE77329
:100270001A433BD0009A3AB3019A012A4FEA075237
:1002800010DC001B61EB02014FF0004202EA075252
:10029000CDE90042001C41F5801132462B4600F0AA
:1002A00067F9B6E7001B61EB0201001C41F5801302
:1002B00000185B412018A2F5001747EB030140EA44
:1002C000D570B6196D4111E06D084FEA360645EA62
:1002D000C0754FEA0752001B61EB0201001C41F59B
:1002E000801149084FEA30000019514132462B462F
:1002F00003B0BDE8F04F00F02EB900980122400095
:100300000023D0EB020263EBE073009821464FEA32
:10031000E074B8EB000061EB0401E9E783F000430F
:100320005BE781F0004158E72DE9FE4F81EA0304C5
:1003300004F0004421F0004100944FF0000B23F042
:10034000004350EA010402D052EA030404D1002021
:10035000014603B0BDE8F08FC3F30A54C1F30A5558
:100360002C44A4F2F3340194A0FB0254C1F3130112
:1003700041F48011C3F3130343F4801301FB0244DF
:1003800000FB034E840A970A44EA815447EA8357E4
:10039000A4FB076802958D0A05FB07854FEA932C9D
:1003A00004FB0C542705029D4FEA065847EA16370E
:1003B000B5EB08056EEB070C870E920E47EA811726
:1003C00042EA8312A7FB0201B6EB0B0164EB0004C7
:1003D0002B0D43EA0C335E1844EB1C50DA465146B1
:1003E000E7FB0201C5F313044FEA0B3343EA14534E
:1003F0004FEA0432019C43EA0603A4F10C04029480
:10040000009CCDE900B400F0B3F8A2E70EB540F2CD
:10041000334102910021CDE900110A460B4600F05C
:10042000A7F803B000BDC1F30A5210B5C1F3130120
:1004300040F2FF3341F480119A4201DA002010BDEE
:1004400040F233439A42A2F2334203DC524200F0BC
:1004500028F810BD904010BD30B50B460146002075
:100460002022012409E021FA02F59D4205D303FA76
:1004700002F5491B04FA02F52844151EA2F10102F7
:10048000F1DC30BD202A04DB203A00FA02F1002022
:1004900070479140C2F1200320FA03F319439040C2
:1004A0007047202A04DB203A21FA02F0002170472D
:1004B00021FA02F3D040C2F12002914008431946CC
:1004C0007047202A06DBCB17203A41FA02F043EAB4
:1004D000E07306E041FA02F3D040C2F120029140FD
:1004E0000843194670472DE9F04791460F4680466C
:1004F0000446002614F8015B2DB100F09DF8006859
:10050000405DC007F6D12B2D02D02D2D18D0641ED2
:100510004A463946204600F093F827B13968A1428F
:1005200001D1C7F8008071054FF002040BD540429D
:10053000002803DD02F02EFA0460A007BDE8F08772
:1005400046F48066E4E70028F8DA02F023FA046053
:100550006FF00040F2E710B5002B08DA401C41F1C3
:10056000000192185B411A4301D120F0010010BD37
:100570002DE9F04D92469B4611B1B1FA81F202E0AD
:10058000B0FA80F220329046FFF77CFF04460F4617
:1005900040EA0A0041EA0B0153465A46084303D198
:1005A00020463946BDE8F08D114653EA010015D0CA
:1005B000C8F140025046FFF774FF05460E4650460C
:1005C00059464246FFF75EFF084301D0012000E094
:1005D0000020054346EAE0762C4337430A984FEA69
:1005E0004453A0EB08004FEAD4240A304FF0000235
:1005F00044EA47544FEAD72502D500200146D1E707
:10060000010510196941DDE9084500196941BDE896
:10061000F04DA0E7064C074D06E0E06840F001030E
:1006200094E8070098471034AC42F6D3FFF7B0FDCA
:100630007C3500089C35000800487047803300086E
:100640002DE9F05F82460078002715468B460AF1B7
:100650000104B946302801D09DB113E014F8010B14
:100660000127782803D0582801D045B10AE00DB100
:10067000102D07D10027102514F8010B02E00825E2
:1006800000E00A250026B0460EE005FB080005FB49
:1006900006F1012701EB10461FFA80F8B6F5803FFE
:1006A00000D3B94614F8010B294600F018F80028C9
:1006B000EBDABBF1000F05D00FB1641E00E0544629
:1006C000CBF80040B9F1000F06D002F063F9022127
:1006D0000160C81EBDE8F09F48EA0640FAE73A28E4
:1006E00000D2303820F02002412A01D3A2F1370095
:1006F000884201D34FF0FF3070470000F0B5012170
:100700009BB0084601F0C4F9F320199003208DF83E
:10071000680000248DF86B4019A93D4800F07CFD6D
:100720000121880501F0B4F901210D02284601F0EC
:10073000F3F9384F384600F047FB374802A9CDE9B6
:1007400000403648062681E85100A800CDE9054062
:10075000400007908000CDE908050AA900010125A5
:1007600081E831000D94694638460E9400F0FEFB96
:100770000121384600F0CAFA15941694179415A86A
:10078000189400F077F80F94119412941394224C5B
:100790008DF840504C3C8DF841508DF850600FA9B9
:1007A000204600F047F9072301220021204600F0EF
:1007B000F1F9072302220121204600F0EBF907237B
:1007C00003220421204600F0E5F907230422052135
:1007D000204600F0DFF9072305220621204600F01D
:1007E000D9F9072306221946204600F0D3F9012142
:1007F000204600F0F5F80121204600F0C7F801215D
:10080000204600F00DF8204600F062FA1BB0F0BD63
:1008100000000240106402404C200140960000207D
:1008200070B504460F480D4684420AD00E488442F3
:1008300007D00E48844204D040F28B110C4802F0DD
:1008400067F955B1012D04D04FF4C671084802F084
:100850005FF9A06840F0010002E0A06820F001000C
:10086000A06070BD00200140002101400022014035
:10087000EC34000810B501680446E1B101291AD032
:10088000022918D0052916D0062914D0072912D01C
:10089000092910D011290ED012290CD015290AD0FF
:1008A000162908D0172906D0192904D04FF4A971A8
:1008B000334802F02DF9606868B1B0F5803F0AD086
:1008C000B0F5003F07D0B0F5403F04D040F25311DF
:1008D0002B4802F01DF9A06868B1B0F5804F0AD02E
:1008E000B0F5004F07D0B0F5404F04D04FF4AA71D7
:1008F000234802F00DF9E16889B3B1F5807F2ED06D
:10090000B1F5007F2BD0B1F5407F28D0B1F5806FD5
:1009100025D0B1F5A06F22D0B1F5C06F1FD0B1F5D1
:10092000E06F1CD0B1F5006F19D0B1F5106F16D083
:10093000B1F5206F13D0B1F5306F10D0B1F5406F25
:100940000DD0B1F5506F0AD0B1F5606F07D0B1F599
:10095000706F04D040F25511094802F0D9F8094AE5
:10096000D2F8040308490840D4E900131943D4E934
:100970000234234319430143C2F8041310BD00009D
:10098000EC34000800200140E030FCFF70B5044664
:100990000F480D4684420AD00E48844207D00E48C4
:1009A000844204D040F21B410C4802F0B1F855B12A
:1009B000012D04D040F21C41084802F0A9F8A068BB
:1009C00040F4807002E0A06820F48070A06070BDE8
:1009D000002001400021014000220140EC340008C9
:1009E00070B504460F480D4684420AD00E48844232
:1009F00007D00E48844204D040F233410C4802F044
:100A000087F855B1012D04D040F23441084802F076
:100A10007FF8A06840F4007002E0A06820F4007045
:100A2000A06070BD00200140002101400022014073
:100A3000EC3400082DE9F041054650480C4685424B
:100A400009D04F48854206D04E48854203D0E9215F
:100A50004D4802F05DF84FF08076206877004FF047
:100A6000407848B1B04207D0B84205D0404503D0E5
:100A7000EA21454802F04CF8207928B1012803D03A
:100A8000EB21414802F044F8607928B1012803D0F5
:100A9000EC213D4802F03CF8A06860B1B0F1805F05
:100AA00009D0B0F1005F06D0B0F1405F03D0ED2176
:100AB000354802F02DF8E06868B3B0422BD0B84258
:100AC00029D0404527D0B0F1806F24D0B0F1A06F7D
:100AD00021D0B0F1C06F1ED0B0F1E06F1BD0B0F1EB
:100AE000006F18D0B0F1106F15D0B0F1206F12D098
:100AF000B0F1306F0FD0B0F1406F0CD0B0F1506F4B
:100B000009D0B0F1606F06D0B0F1706F03D0EE2164
:100B10001D4801F0FDFF206930B1B0F5006F03D032
:100B2000EF21194801F0F4FF207D401E0F2803D962
:100B3000F021154801F0ECFF68681449227908405B
:100B4000216840EA022001436960A868104963797E
:100B50000840D4E903211143A26842EA4302114349
:100B60000143A960E86A20F47001207D401EC0B2F4
:100B700041EA0050E862BDE8F08100000020014039
:100B80000021014000220140EC340008FFFEFFFC80
:100B9000FDF7FFC02DE9F041064649481D461746BE
:100BA0000C4686420AD04748864207D046488642CD
:100BB00004D04FF43271454801F0AAFF44B3012C30
:100BC00026D0022C24D0032C22D0042C20D0052C9B
:100BD0001ED0062C1CD0072C1AD0082C18D0092C9B
:100BE00016D00A2C14D00B2C12D00C2C10D00D2C9B
:100BF0000ED00E2C0CD00F2C0AD0102C08D0112C9B
:100C000006D0122C04D040F2C921304801F080FFF8
:100C1000A7F10108B8F10F0F04D940F2CA212B48FF
:100C200001F076FF95B1012D10D0022D0ED0032DCD
:100C30000CD0042D0AD0052D08D0062D06D0072D86
:100C400004D040F2CB21214801F062FF0720092C9B
:100C50000AD9F168A4F10A0202EB420290408143F2
:100C600095402943F16007E0316904EB440290406C
:100C700081439540294331611F20072F09D2716BB1
:100C800008EB880290408143944021437163BDE8A2
:100C9000F0810D2F09D2316BFF1F07EB87029040C7
:100CA0008143944021433163F1E7F16A0D3F07EB43
:100CB00087029040814394402143F162E7E70000BE
:100CC000002001400021014000220140EC340008D6
:100CD00010B50446094884420AD00948844207D026
:100CE0000848844204D040F23F31074801F010FF29
:100CF000A06840F08040A06010BD000000200140CE
:100D00000021014000220140EC34000870B5044687
:100D10002A480D4684423FD02848183084423BD0B0
:100D200026483030844237D024484830844233D07B
:100D30002248603084422FD02048783084422BD023
:100D40001E489030844227D01C48A830844223D0CB
:100D50001B48844220D01A48183084421CD01848BE
:100D60003030844218D016484830844214D0144899
:100D70006030844210D01248783084420CD0104841
:100D80009030844208D00E48A830844204D040F20B
:100D9000D9110C4801F0BCFE55B1012D04D04FF41F
:100DA000ED71084801F0B4FE206840F0010002E057
:100DB000206820F00100206070BD0000106002403B
:100DC00010640240343500082DE9F05F614E614F38
:100DD000604DDFF88081DFF87CA1DFF878B118364C
:100DE0003037044608F148080AF1600A0BF1780B25
:100DF000A84234D0B44232D0BC4230D044452ED088
:100E000054452CD05C452AD052489030844226D09C
:100E10005048A830844222D04F4884421FD04E48C8
:100E2000183084421BD04C483030844217D04A4896
:100E30004830844213D04848603084420FD046483E
:100E4000783084420BD044489030844207D04248E6
:100E5000A830844203D0BF21404801F059FE2068E9
:100E600020F001002060002020606060A060E06051
:100E700020612120606137484FF03D091038AC42B5
:100E800001D1494603E04FF47461B44202D181605C
:100E9000BDE8F09F4FF4741CBC4202D1C0F808C0FA
:100EA000F6E74FF07467444501D18760F0E72C4ABC
:100EB000544501D1C260EBE72A4B5C4501D1C360C8
:100EC000E6E7244E284D9036B44201D1C560DFE7F5
:100ED000DFF880804FF03D5608F1A808444501D165
:100EE000C660D5E71C48DFF870800838444501D15A
:100EF000494605E0DFF8608008F11808444501D153
:100F00000160C5E7144930318C4202D1C0F800C0FD
:100F1000BEE7114948318C4201D10760B8E70E495C
:100F20000D486031001F8C4201D10260B0E70A49D0
:100F300078318C4201D10360AAE7074990318C4295
:100F400001D10560A4E70449A8318C42A0D1066014
:100F50009EE7000010600240106402403435000833
:100F60003D000020400F002000003D2070B50546E8
:100F70008D480C4685423FD08B48183085423BD087
:100F800089483030854237D087484830854233D051
:100F90008548603085422FD08348783085422BD0F9
:100FA00081489030854227D07F48A830854223D0A1
:100FB0007E48854220D07D48183085421CD07B4831
:100FC0003030854218D079484830854214D077486F
:100FD0006030854210D07548783085420CD0734817
:100FE0009030854208D07148A830854204D04FF433
:100FF0009E716F4801F08CFD2068C8B1B0F1007F90
:1010000016D0B0F1806F13D0B0F1C06F10D0B0F136
:10101000006F0DD0B0F1206F0AD0B0F1406F07D053
:10102000B0F1606F04D040F23D11614801F070FDF5
:10103000E06840B1402806D0802804D04FF49F716A
:101040005B4801F065FD20694FF6FF71401E884244
:1010500004D340F23F11564801F05AFD6069B0F5E3
:10106000007F05D020B14FF4A071514801F050FD30
:10107000A069B0F5806F05D020B140F241114C4815
:1010800001F046FDE06950B1B0F5006F07D0B0F552
:10109000805F04D04FF4A171454801F039FD206A0A
:1010A00050B1B0F5005F07D0B0F5804F04D040F2EA
:1010B00043113F4801F02CFD606A38B1B0F5807FE4
:1010C00004D04FF4A2713A4801F022FDA06A68B141
:1010D000B0F5803F0AD0B0F5003F07D0B0F5403FF3
:1010E00004D040F24511324801F012FDE06A30B1FF
:1010F000042804D04FF4A3712D4801F009FD206BA2
:1011000050B1012808D0022806D0032804D040F2AC
:101110004711274801F0FCFC606B68B1B0F5000F87
:101120000AD0B0F1807F07D0B0F1C07F04D04FF477
:10113000A4711F4801F0ECFCA06B68B1B0F5001F72
:101140000AD0B0F5800F07D0B0F5C00F04D040F240
:101150004911174801F0DCFC29681648E268014093
:1011600020681043D4E905231A431043E269104371
:10117000226A1043626A1043A26A1043626B1043F2
:10118000A26B104308432860686920F00701D4E986
:101190000B02104308436861206968606068A860BA
:1011A000A068E86070BD000010600240106402405A
:1011B000343500083F801CF0012000F001B8000029
:1011C00010B50446C00D00D124B940F21D110348EA
:1011D00001F09EFC0248046010BD000014340008B9
:1011E000143C01401CB50121042000F051FC4FF4D7
:1011F0007C40009000208DF804008DF8060001204E
:101200008DF8070002208DF805006946014800F0BE
:1012100003F81CBD001002402DE9F05F0446484869
:1012200000270D4684421BD04648844218D04648C9
:10123000844215D04548844212D0454884420FD09C
:10124000444884420CD04448844209D043488442F4
:1012500006D04348844203D0BB21424801F058FCE9
:10126000286818B9BC213F4801F052FC287948B1E0
:10127000012807D0022805D0032803D0BD21394812
:1012800001F046FCE87938B1012805D0022803D0E6
:10129000BE21344801F03CFC4FF0010A4FF0030B33
:1012A00028680AFA07F63040B04243D12268790034
:1012B0000BFA01F822EA080289462260287921689F
:1012C00000FA09F0084320602879012801D002289B
:1012D00026D1687948B1012807D0022805D0032813
:1012E00003D0D0211F4801F013FCA06820EA0800B9
:1012F000A0606879A16800FA09F00843A060A879A5
:1013000028B1012803D0D721164801F001FC6068FC
:10131000B04360606068A979B94089B208436060F1
:10132000E06820EA0800E060E879E16800FA09F086
:101330000843E0607F1C102FB2D3BDE8F09F00008F
:10134000000002400004024000080240000C02407D
:10135000001002400014024000180240001C02402D
:1013600000200240CC33000870B506463B481446C6
:101370000D4686421CD03A48864219D039488642EA
:1013800016D03948864213D03848864210D03848A3
:1013900086420DD0374886420AD03748864207D069
:1013A0003648864204D040F21721354801F0B0FBA0
:1013B00015B3012D20D0022D1ED0032D1CD0042DDD
:1013C0001AD0052D18D0062D16D0072D14D0082DB3
:1013D00012D0092D10D00A2D0ED00B2D0CD00C2DB3
:1013E0000AD00D2D08D00E2D06D00F2D04D04FF4AD
:1013F0000671234801F08CFB04B3092C1ED0012C8C
:101400001CD0022C1AD0032C18D0042C16D0052C7A
:1014100014D0062C12D0072C10D0082C0ED00A2C79
:101420000CD00B2C0AD00C2C08D00D2C06D00F2C75
:1014300004D040F21921124801F06AFB6807C10E7E
:101440008C40E80806EB8000026A0F238B409A4329
:101450000262016A2143016270BD00000000024087
:101460000004024000080240000C0240001002404C
:101470000014024000180240001C024000200240FC
:10148000CC3300081CB50121102000F001FB0C201A
:10149000009001208DF8040000218DF806108DF8D1
:1014A000070002208DF8050069460248FFF7B4FEE8
:1014B0001CBD0000001002401CB50121022000F0FC
:1014C000E7FA3020009001208DF8040000218DF80B
:1014D00006108DF8070002208DF8050069460248C5
:1014E000FFF79AFE1CBD00000004024070B50546DF
:1014F0002A4800260C4685421CD02948854219D02E
:101500002848854216D02848854213D0274885426E
:1015100010D0274885420DD0264885420AD026485B
:10152000854207D02548854204D04FF4987124485D
:1015300001F0EEFA012C2AD0022C28D0042C26D05F
:10154000082C24D0102C22D0202C20D0402C1ED0AF
:10155000802C1CD0B4F5807F19D0B4F5007F16D054
:10156000B4F5806F13D0B4F5006F10D0B4F5805F80
:101570000DD0B4F5005F0AD0B4F5804F07D0B4F5B4
:10158000004F04D040F231110D4801F0C1FA286932
:10159000204200D00126304670BD0000000002400D
:1015A0000004024000080240000C0240001002400B
:1015B0000014024000180240001C024000200240BB
:1015C000CC33000870B5044614480D4684421CD044
:1015D0001348844219D01348844216D012488442DA
:1015E00013D01248844210D0114884420DD01148C3
:1015F00084420AD01048844207D01048844204D064
:101600004FF4C9710E4801F083FA25B940F29311E5
:101610000B4801F07DFA658370BD000000000240B8
:101620000004024000080240000C0240001002408A
:101630000014024000180240001C0240002002403A
:10164000CC33000870B5044614480D4684421CD0C3
:101650001348844219D01348844216D01248844259
:1016600013D01248844210D0114884420DD0114842
:1016700084420AD01048844207D01048844204D0E3
:1016800040F27F110E4801F043FA25B94FF4C071C2
:101690000B4801F03DFA258370BD000000000240B8
:1016A0000004024000080240000C0240001002400A
:1016B0000014024000180240001C024000200240BA
:1016C000CC3300081FB51C208DF80C0003208DF8CA
:1016D0000D0004208DF80E0001208DF80F0003A8E6
:1016E00000F05EF91149302081F80004012108461C
:1016F00000F0F0F942F20F7001905320ADF80000B5
:101700000020ADF80800ADF802004FF080446946B3
:10171000204600F041FD01221146204600F0D6FC93
:101720000121204600F004FC1FBD00001CE000E089
:1017300010B500F0D3FDFEF7E1FFFFF753FDFFF713
:10174000C1FF012000F052FA002000F04FFA022001
:1017500000F04CFA032000F049FA0B480B490068EE
:10176000B0FBF1F0B0F1807F0DD220F07F414FF05F
:10177000E020491E4161064AF02182F8141D002133
:1017800081610721016110BD2000002040420F004F
:101790000FE000E070B5054688B00121102000F090
:1017A000BBF90121022000F073F9F020049002201F
:1017B0008DF814008DF815000024234E8DF8164086
:1017C0008DF8174004A93046FFF726FD07220621B1
:1017D0003046FFF7C9FD072211463046FFF7C4FD2A
:1017E0000095ADF808400C20184DADF80440ADF858
:1017F0000A00ADF80640ADF80C406946284600F0F6
:101800008BFF0121284600F0F5FD2021284600F03D
:10181000A9FD012240F22551284600F001FF2520B4
:101820008DF818008DF819408DF81A4001208DF8B8
:101830001B0006A800F0B4F81021252000F018F9CC
:10184000FFF73AFE08B070BD0004024000100140EE
:101850002DE9F0418046012188B0480400F03AF9B2
:101860000121084600F014F902258DF814500024D7
:101870008DF81640204F0C268DF8174004968DF8F1
:10188000155004A93846FFF7C7FC07220221384645
:10189000FFF76AFD072203213846FFF765FDE802DE
:1018A000ADF80400ADF80640ADF80840ADF80C40C6
:1018B000124CCDF80080ADF80A606946204600F071
:1018C0002BFF0121204600F095FD26208DF8180001
:1018D00001208DF819008DF81A508DF81B0006A80C
:1018E00000F05EF81221262000F0C2F8FFF7CAFDD2
:1018F00008B0BDE8F0810000000002400044004054
:1019000010B5054C04212046FFF75CFE2046BDE8DB
:1019100010400821FFF756BE0010024010B5054CDC
:1019200010212046FFF74EFE2046BDE81040202142
:10193000FFF748BE0004024010B5054C04212046C4
:10194000FFF780FE2046BDE810400821FFF77ABE71
:101950000010024010B5054C10212046FFF772FE22
:101960002046BDE810402021FFF76CBE0004024075
:101970001CB504468DF800108DF80120100A8DF872
:101980000200100C8DF80300100E8DF804000020EA
:1019900001F092FC6A460521204601F057FC1CBD6F
:1019A00070B50446C0780F2528B1012803D08721DF
:1019B0001FA001F0ADF86078102803D388211CA087
:1019C00001F0A6F8A078102803D3892118A001F00F
:1019D0009FF8E178012001B32449096801F4E0612E
:1019E000C1F5E061C1F30721C1F10402CD40617886
:1019F0009140A2782A400A431101227802F1E022A4
:101A000082F80014217801F01F02904049098900F2
:101A100001F1E021C1F8000170BD217801F01F0241
:101A200090404909890001F1E021C1F8800170BDB1
:101A30002E2E5C2E2E5C2E2E5C2E2E5C4C6962723D
:101A400061726965735C53544D3332463478785F04
:101A50005374645065726970685F44726976657228
:101A60005C7372635C6D6973632E63000CED00E060
:101A70000907090E002806DA00F00F0000F1E02047
:101A800080F8141D704700F1E02080F800147047C2
:101A900070B504460C480E46044200D124B94FF4F8
:101AA00088610A4801F034F8094D4EB1012E04D086
:101AB00040F24241054801F02BF82868204301E03C
:101AC0002868A043286070BD00EE8B818433000835
:101AD0003038024070B504460C480E46044200D12E
:101AE00024B940F2AD410A4801F012F8094D4EB157
:101AF000012E04D040F2AE41054801F009F82868F3
:101B0000204301E02868A043286070BD003601C969
:101B1000843300084038024070B504460C480E4635
:101B2000044200D124B940F2D5410A4800F0F0FF48
:101B3000094D4EB1012E04D040F2D641054800F0C7
:101B4000E7FF2868204301E02868A043286070BDB3
:101B5000CCA0F8FF843300084438024070B5204A16
:101B60001168204C11F00C0104D06610042903D038
:101B7000082903D004601BE0066019E01849091F1A
:101B80000B68C3F380550B6803F03F0315B1B6FB38
:101B9000F3F301E0B4FBF3F30C680968C4F38814B1
:101BA0006343C1F30141491C4900B3FBF1F10160FA
:101BB00011680F2303EA11110B4B5C5C0168E140D3
:101BC00041601468072505EA94241C5D21FA04F499
:101BD0008460126805EA52329A5CD140C16070BDDF
:101BE000083802400024F400540000201CB50446CC
:101BF0000E48012150F82400FFF74AFF0B4800214E
:101C0000083830F81400009001208DF804008DF899
:101C100006108DF8070002208DF80500044869467B
:101C200050F82400FFF7F8FA1CBD0000EC32000861
:101C3000440000200349044A31F8101052F82000F3
:101C400041837047E4320008440000200349044AFD
:101C500031F8101052F8200001837047E432000878
:101C600044000020044951F820104A69034B33F81E
:101C7000100042404A61704744000020E4320008EE
:101C80000CB500202749019000900A6842F4803288
:101C90000A604FF4A0630A6802F400320092019ACD
:101CA000521C0192009A12B9019A9A42F3D10A6821
:101CB000920334D5012000901A484030026842F067
:101CC000805202601848026842F48042026015485F
:101CD000083002680260026842F400420260026852
:101CE00042F4A0520260031F104A1A600A6842F0D0
:101CF00080720A600A689201FCD50D4A40F20561C3
:101D00001160016821F003010160016841F00201E6
:101D100001600168C1F381010229FAD10CBD009074
:101D20000CBD00000038024000700040085440071D
:101D3000003C024000F0C8BA0F4810B5016841F0FD
:101D4000010101600C4A00210832116002680B4B4E
:101D50001A400260031D0A4A1A60026822F48022B7
:101D6000026005480C300160FFF78AFF05494FF01B
:101D70000060086010BD000000380240FFFFF6FE62
:101D80001030002408ED00E02DE9F05F0121880704
:101D900000F02EF9002868D0354D6888401C80B2CC
:101DA000688002285BD100246C800120FFF75AFF75
:101DB00030480078E8B3DFF8C090DFF8C0802C70BE
:101DC0004FF47A7B05F1080A2C78404638F8141055
:101DD000594503D240F6FF7120F814103AF8141058
:101DE000524630F81430CB1A494629F8143039F9E4
:101DF0001430322B04DC31F9141011F1320F28DACF
:101E000030F8141022F8141030F81400FEF7FEFA1F
:101E10001B4A1C4BFEF788FA064617480F460C383B
:101E200030F81400FEF7F2FA32463B46FEF776FA37
:101E300000E014E0FEF7F7FA0F490C3121F8140026
:101E400031F8142010480B344243E0B20121FFF76F
:101E50008FFD2878401CC0B228700628B4D3BDE896
:101E6000F05F0121880700F011B8BDE8F09F000085
:101E70000C000020010000207400002096000020CB
:101E800044696FF085C9943F18FCFFFF70B50446A4
:101E900019480D4684422BD0B4F1804F28D0174802
:101EA000844225D01648844222D0164884421FD04E
:101EB000154884421CD01548844219D014488442E5
:101EC00016D01448844213D01348844210D01348CB
:101ED00084420DD0124884420AD01248844207D06E
:101EE0001148844204D040F6F311104800F010FE6F
:101EF000E843208270BD0000000001400004004063
:101F000000080040000C0040001000400014004099
:101F100000040140004001400044014000480140ED
:101F200000180040001C0040002000405C34000805
:101F300070B5044620480D4684422BD0B4F1804F42
:101F400028D01E48844225D01D48844222D01D48F6
:101F500084421FD01C4884421CD01C48844219D0A3
:101F60001B48844216D01B48844213D01A4884422E
:101F700010D01A4884420DD0194884420AD019481A
:101F8000844207D01848844204D040F24D211748BB
:101F900000F0BEFD55B1012D04D040F24E21134892
:101FA00000F0B6FD208840F0010002E0208820F01B
:101FB0000100208070BD00000000014000040040CE
:101FC00000080040000C00400010004000140040D9
:101FD000000401400040014000440140004801402D
:101FE00000180040001C0040002000405C34000845
:101FF00070B50446274800260D4684422BD0B4F124
:10200000804F28D02448844225D02448844222D0BE
:10201000234884421FD0234884421CD02248844253
:1020200019D02248844216D02148844213D0214836
:10203000844210D0204884420DD0204884420AD0E7
:102040001F48844207D01F48844204D040F6CC1178
:102050001D4800F05DFD012D12D0022D10D0042D81
:102060000ED0082D0CD0102D0AD0202D08D0402DD8
:1020700006D0802D04D040F6CD11134800F048FD65
:10208000208AA189284201EA050101D001B1012677
:10209000304670BD000001400004004000080040D0
:1020A000000C0040001000400014004000040140FB
:1020B0000040014000440140004801400018004039
:1020C000001C0040002000405C34000870B504464D
:1020D000234816460D4684422BD0B4F1804F28D0B9
:1020E0002048844225D02048844222D01F48844280
:1020F0001FD01F4884421CD01E48844219D01E485D
:10210000844216D01D48844213D01D48844210D00A
:102110001C4884420DD01C4884420AD01B4884428B
:1021200007D01B48844204D040F63D11194800F006
:10213000EFFC280A00D125B940F63E11154800F001
:10214000E7FC4EB1012E04D040F63F11114800F0DB
:10215000DFFCA089284301E0A089A843A08170BDCD
:10216000000001400004004000080040000C004056
:1021700000100040001400400004014000400140F5
:10218000004401400048014000180040001C00408D
:10219000002000405C3400082DE9F05F3D4EDFF880
:1021A000F880DFF8F890DFF8F8A03E4F0D460446BF
:1021B0004FEAB64BB04226D0B4F1804F23D044450D
:1021C00021D04C451FD054451DD05C451BD036480E
:1021D000844218D0BC4216D03448844213D03448CC
:1021E000844210D0334884420DD0334884420AD010
:1021F0003248844207D03248844204D040F21F1152
:10220000304800F085FC688860B110280AD020288A
:1022100008D0402806D0602804D04FF49071294897
:1022200000F076FC288950B1B0F5807F07D0B0F57A
:10223000007F04D040F22111224800F069FC208880
:10224000B4420AD0BC4208D0B4F1804F05D0444516
:1022500003D04C4501D0544503D120F0700168886B
:1022600008435C4506D010498C4203D020F44071ED
:102270002889084320806868E06228882085B44265
:1022800001D0BC4201D1A87A20860120A082BDE8FD
:10229000F09F0000000001400004004000080040E2
:1022A000000C0040000401400014004000400140C8
:1022B000004401400048014000180040001C00405C
:1022C000002000405C34000803488168002902D0E7
:1022D0008168491E816070470000002010B54FF4EE
:1022E000E130FFF757FABDE810404FF49640FFF792
:1022F000AFBA000070B5164C40F22551204600F0F0
:102300000DF9012823D1204600F0D4FAC3B20020F1
:102310001049652B0BD04A681AB90F4D6862A86244
:10232000A8850D4824308354521C4A6009E0486057
:1023300009482430FDF744FF084908600849012096
:1023400008702046BDE87040202100F00BB870BD39
:10235000001001400C000020680000200400002054
:10236000000000202DE9F0471B4E1C4FDFF8708065
:10237000DFF870900D460446B04210D0BC420ED03B
:1023800044450CD01848844209D01848844206D0ED
:102390004C4504D040F22C51154800F0B9FB35F4FF
:1023A000587000D125B940F22D51114800F0B0FB12
:1023B000A8050CD5B4420AD0BC4208D0444506D08A
:1023C0004C4504D040F23251094800F0A1FBE843EB
:1023D0002080BDE8F087000000100140004400406C
:1023E0000048004000140140004C004000500040F4
:1023F000A434000870B5044614480D46844213D036
:102400001348844210D0134884420DD012488442AD
:102410000AD01248844207D01148844204D040F2C6
:102420009B11104800F074FB55B1012D04D04FF4FE
:10243000CE710C4800F06CFBA08940F4005002E023
:10244000A08920F40050A08170BD00000010014060
:102450000044004000480040004C00400050004054
:1024600000140140A43400082DE9F047244F002651
:10247000DFF89080DFF89090DFF890A00C460546DA
:10248000B84210D045450ED04D450CD0204885426D
:1024900009D02048854206D0554504D040F2FC4181
:1024A0001D4800F035FB012C23D0802C21D0402C7E
:1024B0001FD0202C1DD0102C1BD0B4F5807F18D03D
:1024C000B4F5007F08D0082C13D0042C11D0022CB6
:1024D0000FD040F2FD4109E0BD420AD0454508D089
:1024E0004D4506D0554504D040F202510A4800F04F
:1024F0000FFB2888204200D001263046BDE8F08737
:102500000010014000440040004800400014014019
:10251000004C004000500040A43400082DE9F04772
:10252000384F0026DFF8E080DFF8E090DFF8E0A029
:102530000C460546B84210D045450ED04D450CD04E
:102540003448854209D03448854206D0554504D0E8
:102550004FF4AA61314800F0DBFA40F66A10282CEB
:1025600032D0A4F5E06127392ED0A4F5C061263918
:102570002AD0A4F5A061253926D0A4F5806124399C
:1025800022D0A4F5006146391ED084420FD0B4F5A4
:10259000587F19D0A4F54070253815D0B4F5187FB0
:1025A00012D0B4F5B07F0FD040F2515109E0BD42D6
:1025B0000AD0454508D04D4506D0554504D040F2D7
:1025C0005651164800F0A4FA04F01F030122C4F388
:1025D000421002FA03F1012810D0022810D0A88A74
:1025E00008424FEA142102FA01F2298801EA0201A5
:1025F00001D001B101263046BDE8F087A889EFE798
:10260000288AEDE7001001400044004000480040E7
:1026100000140140004C004000500040A434000869
:102620002DE9F05F354FDFF8D880DFF8D8A0DFF86C
:10263000D8B016460D460446B84210D044450ED0D8
:1026400054450CD03148844209D03148844206D0E8
:102650005C4504D040F2BD412E4800F059FA40F6E6
:102660006A19282D1CD0A5F5E060273818D0A5F5EB
:10267000C060263814D0A5F5A060253810D0A5F587
:10268000806024380CD0A5F50060463808D04D4550
:1026900006D0602D04D040F2BE411E4800F038FA4A
:1026A00036B1012E04D040F2BF411A4800F030FA92
:1026B0004D450CD1BC420AD0444508D0544506D003
:1026C0005C4504D040F2C441124800F021FA05F004
:1026D0001F020121C5F342109140012806D00228B3
:1026E00006D0143420682EB1084304E00C34F9E716
:1026F0001034F7E788432060BDE8F09F00100140E8
:10270000004400400048004000140140004C0040DC
:1027100000500040A43400082DE9FF475D4EDFF86B
:102720007881DFF878915E4F0D460446B0420FD0B5
:1027300044450DD04C450BD05A48844208D05A48E5
:10274000844205D0BC4203D0EB21584800F0E0F9A8
:1027500028685749401E884203D3EC21534800F0B3
:10276000D7F9A8884FF4805A28B1504503D0ED21FD
:102770004E4800F0CDF9E88858B1504509D0B0F581
:10278000005F06D0B0F5405F03D0EE21474800F06F
:10279000BFF9288948B1B0F5806F06D0B0F5C06F99
:1027A00003D0EF21414800F0B3F9688930F00C0103
:1027B00000D118B9F0213D4800F0AAF9A889D0B19C
:1027C000B0F5807F0BD0B0F5007F08D0B0F5407F2A
:1027D00005D0F121354800F09BF9A88958B1B442E1
:1027E00009D0444507D04C4505D0BC4203D0F62162
:1027F0002E4800F08DF9208A20F44051E8880843E3
:102800002082A18941F20C608143A8882A89104363
:102810006A890A431043A081A08A20F44071A889E4
:102820000843A0826846FFF799F9B44201D0BC4240
:1028300001D1039800E00298A189090400EBC001CE
:1028400001EB0010296801D5490000E08900B0FBC8
:10285000F1F06422B0FBF2F109010B096FF01805E9
:102860006B4300EB8300A3891D044FF0320306D5B0
:1028700003EBC000B0FBF2F000F0070005E003EB53
:102880000010B0FBF2F000F00F0008432081BDE81B
:10289000FF87000000100140004400400048004055
:1028A00000140140004C004000500040A4340008D7
:1028B000E070720010B504460D48844213D00D48F4
:1028C000844210D00C4884420DD00C4884420AD077
:1028D0000B48844207D00B48844204D040F22D219B
:1028E000094800F015F9A088C0F3080010BD0000E9
:1028F000001001400044004000480040004C0040EF
:102900000050004000140140A434000870B5044693
:1029100011480D46844213D01048844210D010480C
:1029200084420DD00F4884420AD00F48844207D019
:102930000E48844204D040F21D210D4800F0E8F812
:10294000B5F5007F04D340F21E21094800F0E0F8FD
:10295000C5F30800A08070BD001001400044004095
:1029600000480040004C004000500040001401406E
:10297000A43400080FB4054B10B503A9044A02980B
:1029800000F01CF810BC5DF814FB0000152B0008CB
:102990003C000020004870476400002002E008C8A6
:1029A000121F08C1002AFAD170477047002001E0C9
:1029B00001C1121F002AFBD1704700002DE9FF4F13
:1029C00089B09B460446002597E0252833D100278F
:1029D000641C4E49B84601222378203B02FA03F0DA
:1029E000084202D00743641CF6E720782E2819D14C
:1029F00014F8010F47F004072A280ED06FF02F02B9
:102A00002078A0F1300109290CD808EB880102EBED
:102A1000410100EB0108641CF2E70A98641C50F8BD
:102A2000048B0A90207800286BD0642808D069288D
:102A300006D0752820D05A460B9990476D1C5BE054
:102A40000A994FF00A0901C90A91002804DAC0F175
:102A500000004FF02D0102E0390504D52B218DF83F
:102A60002010012103E0F90704D02021F7E78A466E
:102A700008AE0EE00021FAE70A994FF00A0901C9F1
:102A80000A91F7E74946FDF7E7FC01F1300106F846
:102A9000011D0028F6D1ADEB060000F120097807F2
:102AA00001D44FF00108C84502DDA8EB090000E0A1
:102AB00000208046002706E008A85A46C05D0B9912
:102AC00090476D1C7F1C5745F6DB04E030205A46CA
:102AD0000B9990476D1CB8F10001A8F10108F5DCD5
:102AE00005E016F8010B5A460B9990476D1CB9F199
:102AF0000001A9F10109F4DC641C207800287FF4AE
:102B000064AF0DB02846BDE8F08F00000928010031
:102B1000FEE7000070B5114C114E05460A2810D191
:102B200020680D280DD00D20206080213046FFF751
:102B30009BFC0028F9D0208881B23046FFF7E6FEE2
:102B400000E0256080213046FFF78EFC0028F9D098
:102B5000A9B23046FFF7DAFE284670BD34000020E7
:102B6000001001401FB5FEF7E3FDFEF7F3FE7B21E9
:102B7000F9A0B4E0FD4C20780128FBD100212170A0
:102B8000626842F2107392FBF3F64FF47A7592FB8F
:102B9000F5F503FB1622F0B2EDB26260012834D0E5
:102BA00002287AD0002879D0032878D0042877D05A
:102BB000052876D00628DDD1524202210120FEF7F9
:102BC000D7FE6068022142420846FEF7D1FE6068E7
:102BD000022142420320FEF7CBFE606802214242FE
:102BE0000420FEF7C5FE6068022142420520FEF780
:102BF000BFFE6068022142420620FEF7B9FEFEF7E2
:102C0000A9FE60684142DAA069E00120607064209A
:102C100092FBF0F100FB11206060FEF79BFE0B3D84
:102C2000062D5ED2DFE805F003101D2A414ED44880
:102C30006268012142430B20FEF79AFE6068D14A88
:102C400001465330108088E0CD486268012142433C
:102C50000C20FEF78DFE6168CA4A01F153005080D6
:102C600086E0C7486268012142430D20FEF780FEDE
:102C70006068C44A01465330908084E06268C0486E
:102C8000521C424301210E20FEF772FE6168BD4ACC
:102C900008465431D180014604E023E043E095E04A
:102CA000CCE056E2B8A0491C19E0B54862680121A1
:102CB00042430F20FEF75CFE6068B24A0146533083
:102CC000108176E0AE486268012142431020FEF791
:102CD0004FFE6068AB4A01465330508174E0FFF705
:102CE00049FEA8E002210120FEF742FE022108462B
:102CF0006268FEF73DFE022103206268FEF738FE9F
:102D0000022104206268FEF733FE0221052062687A
:102D1000FEF72EFE022106206268FEF729FEFEF76E
:102D200019FE61686FE7642092FBF0F300FB13204B
:102D300060606170FEF70EFE072D7CD2DFE805F0C3
:102D40007B040F1A25303B0062684FF47A704243CF
:102D500001210B20FEF70CFE61688FA0BFE76268BF
:102D60004FF47A70424301210C20FEF701FE6168A6
:102D70008DA0B4E762684FF47A70424301210D20C0
:102D8000FEF7F6FD61688CA0A9E762684FF47A70DF
:102D9000424301210E20FEF7EBFD7BA061689EE718
:102DA00062684FF47A70424301210F20FEF7E0FD84
:102DB000616885A093E762684FF47A70424301210D
:102DC0001020FEF7D5FD616883A088E7FEF7C2FDFD
:102DD0001F3D062D2FD2DFE805F0030A11181F262C
:102DE000002204210B20FEF7C3FD7FA021E000227A
:102DF00004210C20FEF7BCFD7FA01AE00022042174
:102E00000D20FEF7B5FD80A013E0002204210E2066
:102E1000FEF7AEFD80A00CE0002204210F20FEF79B
:102E2000A7FD81A005E0002204211020FEF7A0FDEF
:102E300081A0FFF79FFDFEF771FD9BE66170002406
:102E4000A246D146C846804F464635463A460121FD
:102E50000B20FEF78DFD3A4601210C20FEF788FD80
:102E60003A4601210D20FEF783FD3A4601210E204E
:102E7000FEF77EFD3A4601210F20FEF779FD3A4626
:102E800001211020FEF774FDFEF764FD6FA0FFF72F
:102E900071FD00BF704F4FF480613846FEF726FB8E
:102EA0008346F9143846FEF721FB0390B9143846DF
:102EB000FEF71CFB02904FF400513846FEF716FB5C
:102EC00001904FF480413846FEF710FB00904FF41C
:102ED00000413846FEF70AFB0746BBF1000F12D04F
:102EE0008CB9002204210B20FEF742FD5BA0FFF706
:102EF00041FD0020FEF7AAFE0220FEF79BFE032004
:102F0000FEF798FE0124039890B18DB900220421A8
:102F10000C20FEF72DFD56A0FFF72CFD0020FEF73C
:102F200089FE0220FEF792FE0320FEF783FE0125B4
:102F3000029880B17EB9002204210D20FEF718FD11
:102F400050A0FFF717FD0020FEF780FE0220FEF7DD
:102F50007DFE0320A0E0A2E04E677579656E2074C7
:102F600068696E68202564200A00000000000020C7
:102F700056616E20746F633A202564200A000000B9
:102F800018FCFFFF68000020566920747269203128
:102F9000343A202564200A00566920747269203171
:102FA000313A202564200A00566920747269203164
:102FB000323A202564200A00566920747269203153
:102FC000333A202564200A00566920747269203142
:102FD000353A202564200A00566920747269203130
:102FE000363A202564200A0056692074726920311F
:102FF00031205265736574005669207472692031FE
:1030000032205265736574005669207472692031EC
:1030100033205265736574005669207472692031DB
:1030200034205265736574005669207472692031CA
:1030300035205265736574005669207472692031B9
:103040003620526573657400A086010044616E6786
:10305000207665200A0000000008024056692074AE
:103060007269203131205265736574200A000000B6
:10307000566920747269203132205265736574205C
:103080000A000000566920747269203133205265AD
:10309000736574200A000000FEF7CCFD012601983C
:1030A000A8B1B8F1000F12D1002204210E20FEF7C2
:1030B0005FFC4DA0FFF75EFC0020FEF7BBFD022089
:1030C000FEF7B8FD0320FEF7C1FD4FF001080098A0
:1030D000A8B1B9F1000F12D1002204210F20FEF790
:1030E00047FC46A0FFF746FC0020FEF7AFFD02209C
:1030F000FEF7A0FD0320FEF7A9FD4FF00109B7B1CF
:10310000BAF1000F17D1002204211020FEF730FC85
:103110003FA0FFF72FFC0020FEF78CFD0220FEF7FA
:1031200089FD0320FEF792FD4FF0010A03E0BAF19A
:10313000000F3FF4AFAEB9F1000FFAD0B8F1000FB5
:10314000F7D0002EF5D0002DF3D0002CF1D035A013
:103150006FE601206070642092FBF0F100FB112209
:1031600033486260121F424301210B20FEF700FC2E
:1031700062682F48521F424301210C20FEF7F8FBE2
:1031800062682B480D3A424301210D20FEF7F0FB07
:1031900062682748521F424301210E20FEF7E8FBD8
:1031A00062682348921C424301210F20FEF7E0FB96
:1031B00062681F48921C424301211020FEF7D8FB91
:1031C000A2881C4902F14F000880401E488002F18D
:1031D00046038B80C88055320A814A81FEF7BAFBCC
:1031E00015A061687BE50000566920747269203182
:1031F00034205265736574200A00000056692074FB
:103200007269203135205265736574200A00000010
:1032100056692074726920313620526573657420B6
:103220000A000000484F4D45212121200A000000DE
:1032300018FCFFFF68000020566920747269205650
:1032400069736D653A202564200A00002DE9F04776
:1032500090460E4681460027FEF76EFB202E03D9CE
:103260004FF0FF30BDE8F08746F4807000F024F89E
:10327000092000F021F8484600F01EF889EA06000F
:10328000002480F0090506E018F80400454000F02D
:1032900013F8641CE4B2B442F6D3284600F00CF8EC
:1032A000002000F009F8FEF72BFB7F1CFFB2032F74
:1032B000D2D30120D6E7000010B5064C01462046C7
:1032C000FFF724FB40212046FFF7CEF80028F9D075
:1032D00010BD000000440040000006000100010095
:1032E00001000000001000200040008008000000E5
:1032F00008000000080000000800000000404040F6
:1033000040404040404041414141414040404040B8
:103310004040404040404040404040404005020264
:103320000202020202020202020202020220202023
:10333000202020202020200202020202020290907F
:10334000909090901010101010101010101010107D
:1033500010101010101010100202020202028888D1
:1033600088888888080808080808080808080808DD
:1033700008080808080808080202020240000000C5
:10338000FD3200082E2E5C2E2E5C2E2E5C2E2E5C26
:103390004C69627261726965735C53544D33324695
:1033A0003478785F5374645065726970685F4472F2
:1033B000697665725C7372635C73746D3332663404
:1033C00078785F7263632E63000000002E2E5C2EFF
:1033D0002E5C2E2E5C2E2E5C4C69627261726965C9
:1033E000735C53544D3332463478785F5374645071
:1033F00065726970685F4472697665725C73726346
:103400005C73746D3332663478785F6770696F2EE1
:10341000630000002E2E5C2E2E5C2E2E5C2E2E5C69
:103420004C69627261726965735C53544D33324604
:103430003478785F5374645065726970685F447261
:10344000697665725C7372635C73746D3332663473
:1034500078785F657874692E630000002E2E5C2EEC
:103460002E5C2E2E5C2E2E5C4C6962726172696538
:10347000735C53544D3332463478785F53746450E0
:1034800065726970685F4472697665725C737263B5
:103490005C73746D3332663478785F74696D2E6353
:1034A000000000002E2E5C2E2E5C2E2E5C2E2E5C3C
:1034B0004C69627261726965735C53544D33324674
:1034C0003478785F5374645065726970685F4472D1
:1034D000697665725C7372635C73746D33326634E3
:1034E00078785F75736172742E6300002E2E5C2EE7
:1034F0002E5C2E2E5C2E2E5C4C69627261726965A8
:10350000735C53544D3332463478785F537464504F
:1035100065726970685F4472697665725C73726324
:103520005C73746D3332663478785F6164632E63E4
:10353000000000002E2E5C2E2E5C2E2E5C2E2E5CAB
:103540004C69627261726965735C53544D333246E3
:103550003478785F5374645065726970685F447240
:10356000697665725C7372635C73746D3332663452
:1035700078785F646D612E63000000009C35000860
:1035800000000020680000009C29000804360008A4
:103590006800002040040000AC2900080000000082
:1035A000E803000000000000000000000000000030
:1035B000480D480D480D340D480D8E0D007A030A54
:1035C00000000000000000000102030406070809D3
:1035D00000000000000000000000000000000240A9
:1035E000000C0240000C0240000C0240000C0240A3
:1035F0000000000001020304010203040607080999
:0436000000000000C6
:040000050800018965
:00000001FF
